:100000000C942A000C943F000C943F000C943F0089
:100010000C943F000C943F000C943F000C943F0064
:100020000C943F000C943F000C943F000C943F0054
:100030000C943F000C943F000C943F000C943F0044
:100040000C943F000C943F000C943F000C943F0034
:100050000C943F0011241FBECFE5D8E0DEBFCDBF1A
:1000600010E0A0E6B0E0E0E8F2E002C005900D92FA
:10007000A037B107D9F70E94D1000C943E010C942F
:1000800000002BB3FC01EE0FFF1FE05AFF4F8081F1
:100090008E7F2170822B8BBBAE9A08958EEF8ABB28
:1000A0008FEF84BB81B3837C81BB82B38C6382BBC3
:1000B0000895482F20B330E002C0359527958A95E2
:1000C000E2F720FD16C02FEF86E791E02150804037
:1000D0009040E1F700C0000090B3892F90E002C08B
:1000E000959587954A95E2F7809590958170992727
:1000F000089580E090E008958830910514F40C9400
:10010000410008959C0180FF08C0A89A21FF07C004
:10011000A99A22FF06C0AA9A0895A898F7CFA9988D
:10012000F8CFAA9808959C0180E090E08217930789
:100130000CF00895AD9A4FEF59E668E141505040F8
:100140006040E1F700C00000AD984FEF59E668E16C
:10015000415050406040E1F700C000000196E6CFFA
:10016000AC0180E090E0841795070CF0089525B36A
:10017000276025BB2FEF3DE262E221503040604016
:10018000E1F700C0000025B3287F25BB2FEF3DE23B
:1001900062E2215030406040E1F700C0000001966B
:1001A000E2CF0E944E0080E090E00E94410080E09B
:1001B00090E00E94820001E010E0C0E0D0E084E026
:1001C00090E00E945900892B39F0102784E090E0DC
:1001D0000E945900892BD1F711112CC082E090E0C8
:1001E0000E945900892B81F0C730D105ECF521968A
:1001F000CE010E947C00CE010E94820082E090E04D
:100200000E945900892BD1F783E090E00E945900A9
:10021000892B81F01C161D0664F52197CE010E94E2
:100220007C00CE010E94820083E090E00E94590091
:10023000892BD1F785E090E00E945900892B09F4C1
:10024000BECF83E090E00E94B00080E090E00E948A
:10025000410080E090E00E94820085E090E00E94F2
:100260005900892BD1F7A8CF83E090E00E9493003A
:10027000C5CF83E090E00E949300D6CFF894FFCFE3
:100280007E000C00B6009E00CC00DA00FA000E00E2
:00000001FF
